:020000040800F2
:10000000B0080020B1010008B3250008751D0008E4
:10001000B1250008690900085930000800000000F7
:10002000000000000000000000000000B7250008EC
:10003000010A000800000000B5250008B9250008E5
:10004000CB010008CB010008CB010008CB01000860
:10005000CB010008CB010008CB010008CB01000850
:10006000CB010008CB010008CB010008CB01000840
:10007000CB010008CB010008CB010008CB01000830
:10008000CB010008CB010008CB01000800000000F4
:10009000000000000000000000000000CB0100088C
:1000A00051260008692600085D260008CB010008DB
:1000B000CB0100087526000881260008CB01000846
:1000C000CB010008CB010008CB010008CB010008E0
:1000D000CB010008CD2F0008CB0100080000000074
:1000E000CB010008CB010008CB0100080000000094
:1000F000000000000000000000000000CB0100082C
:1001000000000000CB0100088D260008CB0100088C
:1001100000000000000000000000000000000000DF
:10012000CB010008CB010008CB010008CB0100087F
:10013000CB010008000000000000000000000000EB
:10014000000000000000000000000000CB010008DB
:10015000CB010008CB010008CB010008CB0100084F
:10016000CB010008CB0100080000000000000000E7
:10017000000000000000000000000000000000007F
:1001800000000000CB01000800000000000000009B
:10019000CB010008CB010008DFF810D000F0D2FB43
:1001A00000480047453A0008AFF30080B00800203F
:1001B0000648804706480047FEE7FEE7FEE7FEE701
:1001C000FEE7FEE7FEE7FEE7FEE7FEE74126000862
:1001D000990100082DE9F05F0546002092469B46F4
:1001E00088460646814640241BE02846414647464D
:1001F000224600F0F5F953465A46C01A914110D3F1
:1002000011461846224600F0DCF92D1A67EB01086A
:100210004F4622460120002100F0D3F917EB0009D8
:100220004E41201EA4F10104DFDC484631462A4637
:100230004346BDE8F09F40EA01039B0703D009E075
:1002400008C9121F08C0042AFAD203E011F8013BC2
:1002500000F8013B521EF9D27047D2B201E000F81B
:10026000012B491EFBD270470022F6E710B513465A
:100270000A4604461946FFF7F0FF204610BD10B5A8
:10028000044604E00B7800F8013B03B1491C521E00
:10029000F8D2204610BD10B5002200E0521C835C4D
:1002A0008C5CA34201D1002BF8D1D8B2E1B2401A44
:1002B00010BD2DE9FE4F804681EA0300C00F0C46B9
:1002C000009021F0004123F00045B8EB0200A94165
:1002D00005D24046214690461C460B46024623F076
:1002E0000040104347D0270DC7F30A00C3F30A515B
:1002F0000290401A019040286BDAC3F3130040F4D7
:10030000801B0098924620B10023D2EB030A63EBD6
:100310000B0B01985946C0F14002504600F051F9CC
:1003200006460D4650465946019A00F069F910EB11
:1003300008006141002487EA115284EAE7731A43F6
:1003400040D0009A62B3019A012A4FEA075215DCA5
:10035000001B61EB02014FF0004202EA0752CDE9B7
:100360000042001C41F5801132462B4600F0A0F9F6
:1003700003B0BDE8F08F40462146F9E7001B61EB72
:100380000201001C41F5801300185B412018A2F502
:10039000001747EB030140EAD570B6196D4111E033
:1003A0006D084FEA360645EAC0754FEA0752001B52
:1003B00061EB0201001C41F5801149084FEA300051
:1003C0000019514132462B4603B0BDE8F04F00F012
:1003D00060B90098012240000023D0EB020263EBD9
:1003E000E073009821464FEAE074B8EB000061EB3F
:1003F0000401E9E783F000435BE781F0004158E73F
:100400002DE9FE4F81EA030404F0004421F000418D
:1004100000944FF0000B23F0004350EA01045ED03B
:1004200052EA03045BD0C3F30A54C1F30A552C44C7
:10043000A4F2F3340194A0FB0254C1F3130141F47C
:100440008011C3F3130343F4801301FB024400FB48
:10045000034E840A970A44EA815447EA8357A4FB6F
:10046000076802958D0A05FB07854FEA932C04FB6C
:100470000C542705029D4FEA065847EA1637B5EB9C
:1004800008056EEB070C870E920E47EA811742EAC9
:100490008312A7FB0201B6EB0B0164EB00042B0DEA
:1004A00043EA0C335E1844EB1C50DA465146E7FB36
:1004B0000201C5F313044FEA0B3343EA14534FEA26
:1004C0000432019C43EA0603A4F10C040294009C4C
:1004D000CDE900B400F0ECF803B0BDE8F08F0020E7
:1004E0000146F9E70EB5C10F80EAE0700844CA077B
:1004F000002140F233438DE80E000A460B4600F01F
:10050000D7F803B000BDC1F30A5210B5C1F313010F
:1005100040F2FF3341F480119A4201DA002010BD0D
:1005200040F233439A42A2F2334203DC524200F0DB
:1005300057F810BD904010BD00F0004230F0004070
:100540000AD0C10D01F56071C0F3160042EA0151F5
:10055000C20840071143704700200146704701F070
:10056000004330B421F0004150EA010206D00A0DE8
:10057000A2F56072C1F31301002A02DC30BC002036
:100580007047440F44EAC104C100E01830BC00EBDE
:10059000C25000F047B830B50B460146002020227B
:1005A000012409E021FA02F59D4205D303FA02F580
:1005B000491B04FA02F52844151EA2F10102F1DCE0
:1005C00030BD202A04DB203A00FA02F100207047F7
:1005D0009140C2F1200320FA03F319439040704781
:1005E000202A04DB203A21FA02F00021704721FA88
:1005F00002F3D040C2F120029140084319467047EF
:10060000202A06DBCB17203A41FA02F043EAE073D6
:1006100006E041FA02F3D040C2F1200291400843C3
:10062000194670470029A8BF7047401C490008BF01
:1006300020F00100704710B4B0FA80FC00FA0CF012
:1006400050EA010404BF10BC704749B1CCF120044A
:1006500021FA04F411FA0CF118BF012121430843D7
:10066000A3EB0C01CB1D4FEA00614FEA102042BF03
:10067000002010BC704700EBC35010440029A4BFF9
:1006800010BC7047401C490008BF20F0010010BC9E
:10069000704710B5141E73F1000408DA401C41F1D4
:1006A000000192185B411A4301D120F0010010BDF6
:1006B0002DE9F04D92469B4611B1B1FA81F202E06C
:1006C000B0FA80F220329046FFF77BFF04460F46D7
:1006D00040EA0A0041EA0B0153465A46084313D048
:1006E000114653EA010019D0C8F140025046FFF705
:1006F00077FF05460E46504659464246FFF761FFD2
:10070000084305D0012004E020463946BDE8F08DBD
:100710000020054346EAE0762C4337430A986305F8
:10072000E40AA0EB08000022FD0A44EA47540A301C
:1007300002D500200146E9E7010510196941DDE90C
:10074000084500196941BDE8F04DA2E72DE9F04DDB
:1007500081EA030404F0004B21F0004514464FF0F9
:10076000000A23F0004150EA050220D054EA0102B9
:100770001DD0C5F30A570246C5F31303C1F3130096
:10078000C1F30A5640F4801543F48013A7EB060822
:10079000101BD64608F2FD3873EB050002D308F1B2
:1007A000010801E092185B41B8F1000F03DA002064
:1007B0000146BDE8F08D00204FF4801106468446C6
:1007C0000EE0171B73EB050705D3121B63EB050344
:1007D00006434CEA010C49084FEA300092185B418D
:1007E00050EA0107EDD152EA030012D082EA040078
:1007F00083EA0501084305D0101BAB4106D2012254
:10080000002306E000224FF0004302E06FF00102F7
:1008100053101AEB06004CEB085110EB0A0041EBA9
:100820000B01BDE8F04DFFF734BF00002DE9F041AA
:10083000054621F000400C46284309D0C4F30A5075
:1008400040F23341884205DD28462146BDE8F0816B
:100850002846FBE740F2FE31884210DC0CDB4FEA11
:10086000043040EA155050EA053105D0104804F034
:10087000004101430020E9E700200146E6E7A0F23D
:1008800033404642C6F1400228462146FFF799FE12
:1008900007468846284621463246FFF7A1FE4346D2
:1008A0003A46FFF7F6FE3246BDE8F041FFF789BE53
:1008B0000000F03FC1F30A52C1F3130140F2FF33CD
:1008C00041F480119A4202DA00200146704740F25A
:1008D00033439A42A2F2334202DC5242FFF780BE17
:1008E000FFF76FBE30B5041E71F1000404DB4FF05A
:1008F0000044404264EB0101141E73F1000405DB67
:100900001C464FF00043524263EB04038B4208BF86
:10091000824230BD30B5041E71F1000404DB4FF09B
:100920000044404264EB0101141E73F1000405DB36
:100930001C464FF00043524263EB0403994208BF48
:10094000904230BD064C074D06E0E06840F00103E0
:1009500094E8070098471034AC42F6D3FFF720FC28
:10096000283B0008483B0008FEE70000024630B480
:1009700020492148214B072A39D2DFE802F0380408
:100980000C151E262E000978012902D00122012112
:1009900028E00022FBE74A784FF40071012A01D0D9
:1009A00001221FE000221DE08878012803D00122E7
:1009B0004021184616E00022FAE7C978012902D042
:1009C000012280210EE00022FBE70879012802D0F5
:1009D00001221021EDE70022FBE74979012904D02B
:1009E0000122202130BC00F069B90022F9E730BCB7
:1009F0007047000010020020000402400000024086
:100A0000704772B6FEE770B505460020044607E061
:100A10002E5D8E4202D11C54401CC0B2641CA4B294
:100A20009442F5D370BD2DE9F0410446876D00F086
:100A30004BF9064694F835000025022806D08020A0
:100A4000606584F834500120BDE8F08120680168B9
:100A500021F0160101602068416921F080014161A7
:100A6000206C08B9A06C20B12068016821F0080151
:100A700001602068016821F0010101600CE000F0D4
:100A800023F9801B052807D920206065032084F8FE
:100A9000350084F83450D7E720680068C007EED1ED
:100AA00094F85C103F208840B860012084F835003D
:100AB00084F834500020C7E790F83510022903D09D
:100AC0008021416501207047052180F835100068BC
:100AD000016821F001010160002070472DE9F84F05
:100AE000DFF8B8A10022012403254FF00F090AF115
:100AF000040BAAF1040E00BF0B6804FA02F633409F
:100B0000B34273D10F7907F00307012F01D0022FF1
:100B100016D187684FEA420805FA08FC27EA0C0755
:100B2000D1F80CC00CFA08FC4CEA070CC0F808C05D
:100B30004768B7430E79C6F3001696403E434660B9
:100B40000E79F643B6070DD0C768560005FA06FCC5
:100B500027EA0C07D1F808C00CFA06FC4CEA070C8F
:100B6000C0F80CC00E7906F00306022E10D1D6088C
:100B700000EB8608D8F8206057074FEAD76C09FACF
:100B80000CF7BE430F6907FA0CF73743C8F820701B
:100B900006684FEA420C05FA0CF7BE430F7907F0DE
:100BA000030707FA0CF7374307604E6816F4403F17
:100BB0006DD03B4E376847F480473760366822F087
:100BC000030706F480460096364E07EB060CDCF869
:100BD000086897073F0F09FA07F826EA0806DFF8C2
:100BE000C880404503D14FF000081EE04FE0DFF819
:100BF000BC80404502D14FF0010816E0DFF8B0801C
:100C0000404502D14FF002080FE0DFF8A8804045D0
:100C100002D14FF0030808E0DFF89C80404502D184
:100C20004FF0040801E04FF0070808FA07F848EA17
:100C30000608CCF80888DAF800605746D1F804C0F6
:100C40009E435FEACC2C00D51E433E60DBF800607B
:100C50005F46D1F804C09E435FEA8C2C00D51E434A
:100C60003E60DEF800607746D1F804C09E435FEA3C
:100C70008C3C00D51E433E60084F083F3E68D1F8CB
:100C800004C09E435FEACC3C00D51E433E60521C2C
:100C9000102AFFF431AFBDE8F88F0000083C014096
:100CA000443802400030014000000240000402408D
:100CB00000080240000C0240001002400AB18161AD
:100CC00070470904FBE70000014880687047000096
:100CD0000800002002488168027811448160704752
:100CE000080000200B4810B5016841F40071016054
:100CF000016841F480610160016841F48071016024
:100D0000032000F06FF80F2000F006F800F024F840
:100D1000002010BD003C024070B50D4D04464FF45C
:100D20007A712878B1FBF0F00A490968B1FBF0F05C
:100D300000F00BFB48B9102C07D200222146501EB0
:100D400000F030F800206C6070BD012070BD000024
:100D500008000020140000200A4808B5016841F48A
:100D600080410160006800F4804000900548001F49
:100D7000016841F080510160006800F080500090EF
:100D800008BD000044380240002809DB00F01F02C3
:100D9000012191404009800000F1E020C0F80011DD
:100DA00070470000F0B40E4B1B680C46C3F30223DF
:100DB000C3F10705042D00D90425191D072901D207
:100DC000002300E0DB1E012606FA05F1491E214042
:100DD00099409E40761E16403143F0BC02F04EB959
:100DE0000CED00E0064900F0070208684FF6FF032B
:100DF000184040EA0220034A104308607047000090
:100E00000CED00E00000FA052DE9F0470E46050064
:100E100065D0DFF81481D8F80000F7B200F00700C1
:100E2000B04207D288F80070D8F8000000F0070040
:100E3000B04254D128683D4C810712D5400703D5F4
:100E4000206840F4E05020602878000703D520682F
:100E500040F4604020602068A96820F0F00008435A
:100E600020602878C0072DD03049686808390128EB
:100E700012D0022813D0032811D00968890700294D
:100E80002DDA216821F0030101432160FFF71CFFE7
:100E9000814641F2883A0EE009688903EFE7096864
:100EA0008901ECE7FFF710FFA0EB0901514502D9DA
:100EB0000320BDE8F0872068696800F00C00B0EB03
:100EC000810FEFD1D8F80010404601F00701B14280
:100ED00007D90770006800F00700B04201D0012078
:100EE000E7E72878400705D52068E96820F4E05056
:100EF000084320602878000706D52068296920F477
:100F0000604040EAC100206000F038F82168084ADB
:100F1000C1F30311515CC8400649086006480068E7
:100F2000FFF7FAFE0020C4E7003C02400838024008
:100F3000763A0008140000200C00002004480549FF
:100F400000680968044AC1F38221515CC8407047B7
:100F50001400002008380240863A00080448054979
:100F600000680968044AC1F34231515CC8407047C7
:100F70001400002008380240863A0008154810B5D1
:100F8000006810F00C02144813D04110042A0FD04E
:100F9000082A0ED10F4C241F2268236802F03F025A
:100FA0005B0207D52068C0F38810A0FB010106E0B2
:100FB000084610BD2168C1F38811A1FB0001002380
:100FC000FFF708F92168C1F30141491C4900B0FB52
:100FD000F1F010BD083802400024F4002DE9F84F6C
:100FE00004006ED02078DFF84C93C007A9F1040507
:100FF0004AD009F104000168C1F38101012908D038
:101000000068C0F3810002280AD1D9F8000040022C
:1010100006D52868800337D560680028E1D033E022
:101020006068B0F5803F10D0B0F5A02F286810D0D0
:1010300020F480302860286820F4802028606068D0
:10104000A8B1FFF741FE06460DE0286840F4803065
:10105000F4E740F480202860F7E700BFFFF734FE94
:10106000801B642873D828688003F7D50CE0FFF74D
:101070002BFE064605E000BFFFF726FE801B642816
:10108000F0D828688003F7D42078DFF8AC82800796
:101090004FF0000A3ED5A748001D016811F00C0F63
:1010A00008D00068C0F3810002280BD1D9F80000F5
:1010B000400207D42868800716D5E068012800D1CF
:1010C00012E033E1E068B8B10120C8F80000FFF792
:1010D000FBFD064605E000BFFFF7F6FD801B02287A
:1010E000C0D828688007F7D52868216920F0F80063
:1010F00040EAC10028600DE0C8F800A0FFF7E4FD59
:10110000064604E0FFF7E0FD801B02281FD8286890
:101110008007F7D42078000722D5864F8748616979
:10112000703771B101210160FFF7CEFD064604E082
:10113000FFF7CAFD801B022809D838688007F7D559
:101140000EE0C0F800A0FFF7BFFD064605E082E014
:10115000FFF7BAFD801B02287DD838688007F7D4D6
:101160002078400768D5DFF8CCB100270BF13C0BA5
:10117000DBF80000C0000BD4DBF8001041F0805118
:10118000CBF80010DBF80000012700F08050009041
:101190006B4E3068C00510D4306840F48070306009
:1011A000FFF792FD009005E0FFF78EFD0099401AD1
:1011B000022850D83068C005F6D55E4EA0686C365F
:1011C00001280FD00528306810D020F001003060D1
:1011D000306820F004003060A068B8B1FFF774FDFB
:1011E00000900FE0306840F00100F4E740F00400A8
:1011F0003060F7E7FFF768FD0099411A41F2883047
:10120000814266D830688007F4D50EE0FFF75CFDB8
:10121000009007E0FFF758FD0099411A41F288302D
:10122000814256D830688007F4D42FB1DBF8001023
:1012300021F08051CBF80010A069C8B33D49091DC9
:101240000968C1F3810102294AD00228504607D01B
:10125000C8F8600000E03CE0FFF736FD04463BE0E4
:101260004746C8F86000FFF72FFD064605E000BFBF
:10127000FFF72AFD801B02282BD828688001F7D4AD
:10128000D4E907010843A16A2E4A490802EB01414B
:10129000626A41EA8211084394F82C1040EA016125
:1012A000C9F8001001203866FFF70EFD044606E07D
:1012B0003EE000BFFFF708FD001B022809D82868A0
:1012C0008001F7D534E000BFFFF7FEFC001B0228C9
:1012D00002D90320BDE8F88F28688001F4D427E004
:1012E0000128F7D0D9F80000E26900F480019142AA
:1012F0001CD1226A00F03F01914217D147F6C0711C
:10130000626A0140B1EB821F10D1A26A4FF0FF3335
:1013100000F4403103EB5202B1EB024F06D194F8D6
:101320002C1000F07060B0EB016F01D00120D1E70C
:101330000020CFE70438024000004742800E4742B9
:10134000007000400000FFFF704710B5401EB0F174
:10135000807F01D3012010BD4FF0E02460610F2198
:10136000601701F08BFE0020A061072020610020A3
:1013700010BD10B5FFF7E8FF10BD704770470000C3
:1013800070B590F83C20012A2CD0012480F83C4014
:10139000022280F83D2003685A689D6822F070069A
:1013A0000A6832435A60104B02689A420ED0B2F17A
:1013B000804F0BD00D4B9A4208D00D4B9A4205D06E
:1013C0000C4B9A4202D00C4B9A4204D1496825F04A
:1013D00080031943916080F83D40002180F83C1063
:1013E000084670BD022070BD0000014000040040AE
:1013F00000080040000C00400040014010B504000F
:1014000003D094F83D0010B107E0012010BD00208A
:1014100084F83C00204600F01FF8022084F83D00CC
:10142000211D206801F038F9012084F8460084F875
:101430003E0084F83F0084F8400084F8410084F8BE
:10144000420084F8430084F8440084F8450084F89E
:101450003D00002010BD000008B53A4A01683A4836
:1014600091420ED1016841F0020101600068002242
:1014700000F00200009002211D20FFF793FC1D20C8
:101480005AE0324A91420ED1016841F004010160F4
:101490000068002200F00400009002211E20FFF7E7
:1014A00081FC1E2048E02A4A91420ED1016841F099
:1014B000080101600068002200F00800009002218D
:1014C0003220FFF76FFC322036E01F48214A001D12
:1014D00091420ED1016841F4803101600068002220
:1014E00000F48030009002211820FFF75BFC1820E8
:1014F00022E0194A91420ED1016841F400310160A5
:101500000068002200F40030009002211920FFF74B
:1015100049FC192010E0114A914211D1016841F4AF
:10152000802101600068002200F4802000900221E8
:101530001A20FFF737FC1A20BDE80840FFF724BC4B
:1015400008BD000000040040403802400008004090
:10155000000C0040004001400044014000480140B0
:1015600090F83D10012901D001207047022180F838
:101570003D100168CA6842F00102CA6000680E4965
:1015800088420ED0B0F1804F0BD00C49884208D071
:101590000B49884205D00B49884202D00A4988424B
:1015A00004D1816801F00701062903D0016841F0E8
:1015B000010101600020704700000140000400406C
:1015C00000080040000C0040004001400168CA686B
:1015D00022F00102CA6001680A6A41F211131A423C
:1015E00007D10A6A9B101A4203D10A6822F001024D
:1015F0000A60012180F83D100020704770B5044654
:1016000090F83C000025012817D0012684F83C60A2
:10161000022084F83D002068826822F0770222F4DC
:101620007F4282600868502838D00DDC20284FD0D7
:1016300005DC90B3102811D14AE0022070BD30289B
:1016400046D040280AD13BE060282FD070280DD02A
:10165000B0F5805F03D0B0F5005F12D0012584F8AB
:101660003D60002084F83C00284670BDCB68D1E97D
:101670000121206801F05CF82068816841F0770161
:1016800009E0CB68D1E90121206801F051F8206818
:10169000816841F480418160E1E719E0CA684968E6
:1016A000206801F057F85021206806E0CA684968B0
:1016B000206801F060F86021206801F043F8CEE76F
:1016C000CA684968206801F045F840212068F4E7BD
:1016D000226801461046F0E7704770B5044600687E
:1016E00001694FF00005C943890715D4C168C94392
:1016F000890711D4E91E01610120207720688069E3
:101700008007204602D0FFF7E7FF04E000F098F8DA
:10171000204600F096F8257720680169C9434907FB
:1017200017D4C168C943490713D46FF0040101619C
:10173000022020772068806910F4407F204602D084
:10174000FFF7CAFF04E000F07BF8204600F079F8CC
:10175000257720680169C943090716D4C168C943C0
:10176000090712D46FF00801016104202077206876
:10177000C0698007204602D0FFF7AEFF04E000F00A
:101780005FF8204600F05DF8257720680169C943BD
:10179000C90617D4C168C943C90613D46FF0100134
:1017A0000161082020772068C06910F4407F20463E
:1017B00002D0FFF791FF04E000F042F8204600F06D
:1017C00040F8257720680169C943C90708D1C16875
:1017D000C943C90704D1891E0161204600F032F8CF
:1017E00020680169C943090609D4C168C9430906CB
:1017F00005D46FF0800101612046FFF7BEFD20682F
:101800000169C943490609D4C168C943490605D4D9
:101810006FF040010161204600F064F82068016922
:10182000C94389060BD4C168C943890607D46FF040
:10183000200101612046BDE87040FFF79FBD70BDEB
:101840007047704730B52049046800220D680123B5
:101850001E49AC4204D14C790CB14A7100E04B7185
:101860001B4D04682D68AC4204D1CC780CB1CA7011
:1018700000E0CB70174D04682D68AC4204D14C7861
:101880000CB14A7000E04B70134D04682D68AC42F7
:1018900004D10C780CB10A7000E00B700F4D046895
:1018A0002D68AC4204D18C780CB18A7000E08B704A
:1018B0000B4C00682468A04202D1087908B10A7173
:1018C00030BD0B7130BD00001C0000200000002066
:1018D00064000020AC000020F40000203C01002047
:1018E000840100207047704770470000F8B5016818
:1018F00004460868CA684B6910F00F0F4FF00005E6
:1019000059D003F0010602F49077374365D0C10740
:1019100005D0D10503D5216C41F0010121644107B7
:1019200005D5D90703D0216C41F00201216481075C
:1019300005D5D90703D0216C41F0040121640107CA
:1019400007D502F02001314303D0216C41F008019A
:101950002164216C00293AD0800604D5900602D576
:10196000204601F0F2F920684069216CC0F3801034
:10197000090700D460B3204601F0C0F9206840692F
:10198000400621D52068143050E8001F21F04001A6
:1019900040E80012002AF5D1A06BA8B16C4901659E
:1019A000A06BFFF789F8002811D0A06B016D01B082
:1019B000BDE8F040084783060FD593060DD52046B5
:1019C000BDE8F84001F0C1B92046FFF78DFFF8BD32
:1019D0002046FFF789FF2564F8BD266B2023012EE2
:1019E00079D1C60677D5D60675D5086848680090BF
:1019F0004869400640D5A16B086840680004000CA7
:101A0000EAD0A28D8242E7D9E085C869B0F5807F2F
:101A10002DD020680C3050E8001F21F4807140E880
:101A20000012002AF5D12068143050E8001F21F080
:101A3000010140E80012002AF5D12068143050E876
:101A4000001F21F0400140E80012002AF5D184F87F
:101A50003E30256320680C3050E8001F21F0100153
:101A600040E80012002AF5D1A06BFEF7DCFFA08D44
:101A7000E18D401A81B229E0A08DE18D401A81B23A
:101A8000E08D0028A8D00029A6D020680C3050E8AE
:101A9000002F22F4907240E80026002EF5D1206835
:101AA000143050E8002F22F0010240E80026002EFA
:101AB000F5D184F83E30256320680C3050E8002FC3
:101AC00022F0100240E80023002BF5D12046FFF75A
:101AD0000AFFF8BDFFE705062BD5150629D594F8B2
:101AE0003D002128F5D1A068B0F5805F01D12069C3
:101AF000B0B1206A411C2162216800784860E08C06
:101B0000401E0004000CE084E3D12068C16821F08D
:101B10008001C1602068C16841F04001C160D8E720
:101B2000206A0088C0F308004860206A801C206298
:101B3000E5E74006CDD55006CBD5CA68204622F051
:101B40004002CA6084F83D3000F013F9C1E700009C
:101B5000ED2C000870B5040004D094F83D00002579
:101B600010B106E0012070BD84F83C50204600F022
:101B700023F8242084F83D002068C16821F4005136
:101B8000C160204601F042F92068016921F49041CA
:101B900001612068416921F02A0141612068C16822
:101BA00041F40051C1602564202084F83D0084F890
:101BB0003E00002070BD0000F0B587B0044614213F
:101BC0006846FEF751FB2149206888423BD12048F6
:101BD0000024016841F010010160006800F010006D
:101BE00005901B481438016841F00101016001684B
:101BF00001F001010591016841F0020101600068F6
:101C0000022500F0020005904FF40040CDE90005E8
:101C100002AA0326072782E8D00069460D48FEF78E
:101C20005DFF0820CDE9000502AA694682E8D000E0
:101C30000948FEF753FF002201212520FFF7B2F8E3
:101C40002520FFF7A1F807B0F0BD0000001001400B
:101C500044380240000002400004024090F83E3048
:101C6000202B0ED159B152B190F83C30012B08D045
:101C7000012380F83C300023036301F04DB90120BB
:101C8000704702207047000010B50A4900680968D3
:101C900088420DD10848094990F8500101F09CF99B
:101CA00006490122BDE81040491E0248FFF7D6BF91
:101CB00010BD0000CC01002034020020850300206C
:101CC0002DE9F843044690F83D001F4616460D46A0
:101CD00020284CD1C5B1BEB194F83C00012846D0B3
:101CE000012084F83C004FF00008C4F84080212017
:101CF00084F83D00FEF7E8FFA6848146E684A068EC
:101D0000B0F5805F03D004E00120BDE8F8832069CE
:101D100028B12E465FF0000584F83C800EE00026D6
:101D2000FAE78021204601F014F9A0B9AEB116F807
:101D3000010B21684860E08C401EE084E08C4B463B
:101D40004FF0000200970028EBD14FF040012046F1
:101D500001F0FFF830B10320D7E735F8020BC0F3EC
:101D60000800E6E7202084F83D000020CDE70220AF
:101D7000CBE77047FEE7000070B50C460546FF2133
:101D80000448FEF771FA22462946BDE87040014832
:101D9000FEF751BA3402002002461648072A28D21C
:101DA000DFE802F027040B10181F2200012902D0DF
:101DB000002202210AE00122FBE74FF4806315E0D4
:101DC000194603E0012903D000220121FEF776BF66
:101DD0000122FAE74FF4007308E00122F0E7002245
:101DE000EEE74FF4006301E04FF480730129F6D170
:101DF000F3E77047000002402DE9F04F04462DED57
:101E0000028B95B0B0EE408A182107A8FEF72CFA95
:101E100000200190B0EE000A02900390049005901B
:101E2000069028EE008A07A800EB84016B4A01EDBA
:101E3000018A18EE100A12681392694A0126B0F15D
:101E40007E5F12681292674AD2F800B0664AD2F8F2
:101E500000A0664AD2F80090654AD2F8008001AA34
:101E600002EB440722DC40F2C340072C09D2DFE832
:101E700004F008171519061B0400139A00E0129AC3
:101E8000906211ED010ADFED5B0A80EE801ABCEE74
:101E9000C10A10EE100A27F8020C75E05A46EFE767
:101EA0005246EDE74A46EBE74246E9E718EE100AEC
:101EB000514A04A901EB4405904202DC9FED4F0B0F
:101EC0001DE018EE100A4C49C9430844B0F1947F54
:101ED00002D29FED4C0B12E018EE100A4B49084459
:101EE0004FF40001884202D29FED490B07E018EE43
:101EF000100A494A1044884209D29FED480B01F06C
:101F0000CFF851EC100BFEF7FEFA25F8020C35F86D
:101F1000020C4449072CB1FBF0F000EE100AB8EEB9
:101F2000400AC0EE080ABCEEE00A10EE100A27F8DC
:101F3000020C29D2DFE804F02816101C0A22040043
:101F4000BDF81A001399401E886225E0BDF81600FE
:101F50001299401E886223E0BDF81200401ECBF8A3
:101F6000280021E0BDF81000401ECAF828001FE03C
:101F7000BDF81400401EC9F828001DE0BDF8180087
:101F8000401EC8F828001BE0072C22D2DFE804F02E
:101F900021100C1408180400BDF80E100F4812E0B0
:101FA000BDF80A100E480EE0BDF806100D480AE014
:101FB000BDF804100C4806E0BDF808100B4802E01C
:101FC000BDF80C100A48491E0268D162C160006861
:101FD000466115B0BDEC028BBDE8F08F1C000020FF
:101FE00064000020AC000020F40000203C01002030
:101FF0008401002000E8CC450000204100000000E2
:1020000000805E400000000000003840FFFFB7BDC8
:102010000000000000002840FFFF37BD0000000066
:102020000000104000127A000E490A1812F8012C24
:10203000012A05D0002A13D15FF00001FFF7ACBEE2
:1020400001EB800191ED010AB5EEC00AF1EE10FA44
:1020500006D00549014411F8011C0129EED0EBE737
:102060007047000010020020000000202DE9F0471A
:1020700086B014216846FEF7F7F837480025016856
:1020800041F080010160016801F080010591016863
:1020900041F001010160016801F001010591016851
:1020A00041F0020101600068DFF8B09000F002002A
:1020B00040F603740590002221464846FEF7FEFDD7
:1020C000012250214846FEF7F9FDDFF894A040F2C6
:1020D000A128012241465046FEF7F0FD00220421CE
:1020E0005046FEF7EBFD009401AA0124032682E886
:1020F000700069464846FEF7F1FCA8204FF44417EB
:10210000CDE90007694602944846FEF7E7FC5020F7
:10211000CDE90004022569464846CDE90245FEF7AF
:10212000DDFCCDE9008469465046CDE90245FEF765
:10213000D5FC04208DE8710069465046FEF7CEFCC0
:102140004FF4A870CDE90007694602945046FEF7A7
:10215000C5FC06B0BDE8F087303802400000024000
:10216000000402400C4810B50A49016040F2C34126
:10217000416000214FF6FF72C0E9021201618161E6
:10218000FFF73CF9002803D0BDE81040FEF739BC4A
:1021900010BD0000004401403C0100200C4810B577
:1021A0000A49016040F2C341416000214FF6FF72CD
:1021B000C0E9021201618161FFF720F9002803D014
:1021C000BDE81040FEF71DBC10BD000000480140F6
:1021D0008401002010B586B00024184800940194B2
:1021E00002940394049414490594016040F2C3419D
:1021F000C0E901144FF6FF71C0E903148461FFF7D1
:10220000FDF808B1FEF7FDFB4FF4805000906946E1
:102210000A48FFF7F3F908B1FEF7F3FB3020CDE9E8
:10222000040404A90548FFF7ABF8002801D0FEF725
:10223000E8FB06B010BD0000000400401C000020B8
:1022400010B586B0002418480094019402940394B9
:10225000049414490594016040F2C341C0E901149B
:102260004FF6FF71C0E903148461FFF7C7F808B1A6
:10227000FEF7C7FB4FF48050009069460A48FFF70D
:10228000BDF908B1FEF7BDFB3020CDE9040404A977
:102290000548FFF775F8002801D0FEF7B2FB06B03D
:1022A00010BD0000000800406400002010B586B09A
:1022B000002418480094019402940394049414494F
:1022C0000594016040F2C341C0E901144FF6FF716B
:1022D000C0E903148461FFF791F808B1FEF791FBA0
:1022E0004FF48050009069460A48FFF787F908B11B
:1022F000FEF787FB3020CDE9040404A90548FFF769
:102300003FF8002801D0FEF77CFB06B010BD0000AE
:10231000000C0040AC0000201FB5002111480091C6
:10232000019102910E4A0391026040F2C342C0E95A
:1023300001214FF6FF72C0E903218161FFF75EF8CA
:1023400008B1FEF75EFB4FF48050009069460548E7
:10235000FFF754F9002801D0FEF753FB1FBD000022
:1023600000400140F40000200C4810B50A4901600B
:102370004FF4E1314160002181600C22C160C0E96D
:1023800004128161C161FFF7E5FB002803D0BDE8BD
:102390001040FEF736BB10BD00100140CC010020FC
:1023A00010B5012205490648FFF758FC054800F022
:1023B00055FEBDE81040044800F050BE84030020E4
:1023C000CC010020903A0008D83A00082DE9F041ED
:1023D0006B4C2DED028B94F84F01002876D000272E
:1023E00084F84F7100F0DAF994F870029FED658A75
:1023F000654D10B101282CD055E00026A01990F8A9
:102400007102A855D4ED9B0AF5EEC00AF1EE10FA60
:1024100008D005EB8600C0ED020A04EB8600C0ED93
:10242000950A07E004EB860090ED950A05EB86001F
:1024300080ED020A05EB8600761C90ED020AF0B2F0
:10244000FFF7DAFCF0B2FEF791FAF6B2062ED5D31A
:1024500029E094F877024D49425C4B49491E4254A9
:1024600004EB800191ED940A05EB800181ED010AF6
:10247000FFF7C2FC94F87702FEF778FA5FF00106E6
:1024800094F87702B0420AD0A81900F8017C3046CF
:10249000FEF76CFAB0EE480A3046FFF7ADFC761C4A
:1024A000F6B2062EECD984ED9B8A6879012801D01A
:1024B00020B106E03648FFF753F802E03448FFF752
:1024C00085F8E878012802D028B107E036E03148E5
:1024D000FFF746F802E02F48FFF778F86878012800
:1024E00001D020B106E02C48FFF73AF802E02A4874
:1024F000FFF76CF82878012801D020B106E02748C2
:10250000FFF72EF802E02548FFF760F8A8780128C9
:1025100001D020B106E02248FFF722F802E020486F
:10252000FFF754F82879012801D020B106E01D48B2
:10253000FFF716F802E01B48FFF748F800256D1C6E
:10254000E8B2FFF771FDEDB2062DF8D394F87002F2
:10255000002810D094F877121348095C1348012919
:1025600007D00022BDEC028B0421BDE8F041FEF74C
:10257000A5BB0122F6E7BDEC028BBDE8F0810000AF
:10258000340200200000000010020020A4040020FB
:102590001C00002064000020AC000020F40000209B
:1025A0003C01002084010020FFFFFF1F00040240C7
:1025B000FEE7FEE77047704710B5FEF78BFBBDE8FE
:1025C0001040FEF7D6BE000030B593B0302168460B
:1025D000FDF74AFE14210CA8FDF746FE164800241C
:1025E000016841F080510160006800F08050119056
:1025F0001248016841F4404101600068012500F47F
:102600004040119028040694CDE900506846FEF73A
:10261000E5FC08B172B6FEE70F200C90CDE90D5431
:102620000F9400210CA81094FEF7EEFB002801D0B7
:1026300072B6FEE713B030BD403802400070004073
:102640000248016841F470010160704788ED00E0C4
:102650000148FFF742B80000F40000200148FFF7EE
:102660003CB80000840100200148FFF736B80000A4
:102670003C0100200148FFF730B800001C0000209A
:102680000148FFF72AB80000640000200148FFF766
:1026900024B80000AC000020F0B502681D4B1E4CB1
:1026A0009F031E4D1E4E984207D0B84205D0A0424F
:1026B00003D0A84201D0B04204D122F0700C4A6885
:1026C00042EA0C02984210D0B8420ED0A0420CD080
:1026D000A8420AD0B04208D0124CA04205D0124CF9
:1026E000A04202D0114CA04203D122F44074CA6827
:1026F00022434C6922F08002224302608A68C2624F
:102700000A688262984201D109690163012141612D
:10271000F0BD00000000014000040040000800403F
:10272000000C0040004001400044014000480140CE
:1027300010B5846842EA032224F47F440A4322430A
:10274000826010BD826822F070020A4342F00701E5
:102750008160704710B5036A046A24F001040462C2
:10276000846924F0F00444EA021423F00A020A43C4
:102770008461026210BD10B5036A23F01003036286
:102780008369046A23F4704343EA023224F0A0030D
:1027900043EA01118261016210BD00002DE9F0439E
:1027A0002DED028B85B00024F8480094019402942A
:1027B000039440F87F4F462144600481F3488930F8
:1027C000FDF752FDF1490322803903A8FDF757FDBB
:1027D000EFA103A8FDF75FFD38B1EC48EDA180380B
:1027E000FDF759FD002870D041E0E84D803DB5F877
:1027F0005022042A3BD96B463D212846FEF703F9B7
:10280000012834D19DF8002005F1FF00A91C814664
:10281000521EFDF734FD9DF800000094401EC6B224
:1028200001940294B5F850226B462C212846FEF7FD
:10283000EAF8070005F500780BD0D8A14846FDF767
:102840002AFDA0B1D7A14846FDF725FD00283DD0BF
:102850003EE0CE48B5F850226B463F218038FEF767
:10286000D2F830B9CDA14846FDF715FD08B1CFA08B
:1028700013E2CAA14846FDF70EFD00287DD1A81934
:102880008078302806D0312808D0022085F87002E0
:10289000C9A002E285F87042CCA0FEE1012085F8D3
:1028A0007002002108462A1892F871220AB1491CC8
:1028B000C9B2401CC0B20628F5D3012903D940464D
:1028C00040F8714F8480C7A0E7E1E5E1052F1DD0F6
:1028D000C9A14846FDF7DFFC0028C8D1012FC6D1A9
:1028E000687A2C28C3D1287A3038C0B2401E062816
:1028F000BDD8B5F85012C6B200200C390029B6DD9B
:1029000006EB86030A2105EB430475E0A87930380D
:1029100085F87102287A303885F87202A87A303842
:1029200085F87302287B303885F87402A87B30382C
:1029300085F87502287C303885F876020026A819BB
:1029400090F87102E8B1012807D098A000F086FB4A
:10295000404640F8714F84801EE095F8700230B90F
:10296000711CA7A000F07AFB95F8700230B195F8C1
:102970007802401C85F878020AE02BE085F877425F
:1029800006E095F8700218B9711CA2A000F066FB71
:10299000761CF6B2062ED2D395F87802012803D021
:1029A00018D985F8784262E785F878424FF0000040
:1029B00005EB000191F87112012902D1411C85F843
:1029C0007712401CC0B20628F2D395F8771297A070
:1029D00000F044FB05B0BDEC028BBDE8F0836A5CFF
:1029E0006718303A52B287F8FF20921C02D1A1F149
:1029F0000A00C0B2491CC9B2B5F85022971E8F42D6
:102A0000EDDC4FF48377002107EB430702EB050C65
:102A1000631893F9093113F1020F01D00A2BC2D2C6
:102A200094F909319B1CBED01CF907309B1CBAD00D
:102A3000491CC9B20429EBD3844F40B10D3AD1B23D
:102A40009FED838B032946D002295BD078E00C3AB6
:102A5000D0B2042806D003281AD0022827D0012893
:102A60002ED06DE094F9090194F90C1100EB4002AD
:102A7000C2EBC01001EBC00094F90A11642211FBF3
:102A800002F194F90B2102EB820201EB42010CE00E
:102A900094F90901642110FB01F094F90A1101EB8A
:102AA000810100EB410094F90B1108440AE094F90C
:102AB000091194F90A0101EB810100EB410001E0E9
:102AC00094F9090100EE100A05EB8600B8EEC00A81
:102AD00080ED950A34E0022816D194F90C0104F235
:102AE0000914FDF7FFFC53EC182BFDF789FC41ECB2
:102AF000180B94F9001094F9010001EB810100EB2F
:102B0000410011E0012803D028A000F0A7FABBE0A3
:102B100094F90B01FDF7E6FC53EC182BFDF770FC64
:102B200041EC180B94F90901FDF7DCFC53EC182B70
:102B3000FDF7BFFBFDF713FD05EB8601C1F854025D
:102B400005EB8600D0F85402B8421EDC062E0AD2ED
:102B5000FDF7F2FC41EC100B711C53EC102B3EA066
:102B600000F07CFA36E7FDD195F8700200287FF47A
:102B70003BAE0648A0F18000D0F86C02FDF7DCFC0B
:102B800041EC100B53EC102B7AE07DE0B4020020F6
:102B900041542B0041540D0A000000002B4D4F44BE
:102BA000453D00002B43483D000000000D0A455202
:102BB000524F520D0A0000000D0A4D6F64652053FC
:102BC0006574204552524F520D0A00000D0A5353AE
:102BD000564550204D6F646520536574204F4B0D52
:102BE0000A0000000D0A455250204D6F64652053C5
:102BF0006574204F4B0D0A002B465245513D000095
:102C00004368616E6E656C20256420456E61626C60
:102C1000650D0A004368616E6E656C202564204472
:102C2000697361626C650D0A000000004552502016
:102C30004D6F6465204368616E6E656C202564206D
:102C4000456E61626C650D0A000000000000C8421C
:102C50009A9999999999B93F4368616E6E656C200C
:102C60002564204672657175656E6365203D20257B
:102C70002E316620536574204F4B0D0A0000000072
:102C800007A000F0EBF9A5E605EB8600D0F85402AA
:102C9000B842F8DD0CA000E012A000F0DFF999E6E0
:102CA000416C6C204368616E6E656C204672657184
:102CB00075656E6365203D20252E31662053657451
:102CC000204F4B0D0A0000004672657175656E63FA
:102CD00065204F7574206F662052616E67652121F3
:102CE000210D0A000D0A4F4B0D0A000010B5806B34
:102CF0000021C185C184FEF7F7FD10BD01680C31CC
:102D000051E8002F22F4907241E80023002BF5D106
:102D10000168143151E8002F22F0010241E800233C
:102D2000002BF5D1016B012909D101680C3151E863
:102D3000002F22F0100241E80023002BF5D12021C2
:102D400080F83E1000210163704708B590F83E10EE
:102D5000222901D0022008BD82684FF480539A4294
:102D600001D1016921B1816A9A421BD04AB10AE0BE
:102D70000268816A5268C2F308020A80816A891C6B
:102D800008E0026972B10268526802F07F020A70BC
:102D9000816A491C8162C18D491E0904090CC185E3
:102DA00003D019E002685268F1E70168CA6822F0AE
:102DB0002002CA600168CA6822F48072CA60016891
:102DC0004A6922F001024A61202180F83E10016B1D
:102DD000012903D0FEF758FF002008BD0021016340
:102DE00001680C3151E8002F22F0100241E8002365
:102DF000002BF5D101680A68D20602D50A68496835
:102E00000091818DFEF76FFDE6E7000070B5044686
:102E100000680169E26821F44051114301612169B0
:102E2000A068E26908436169114308432168CA68E0
:102E300049F20C639A430243CA6020684169A2695F
:102E400021F440711143416131492068884202D028
:102E50003049884202D1FEF781F801E0FEF76EF8B2
:102E6000E2690023192164253226B2F5004F626819
:102E700028D0A0FB0101930F9200FDF7ABF90146AA
:102E8000B0FBF5F06FF01802504301EB800006EB49
:102E90000010B0FBF5F000F0F002B1FBF5F002EB32
:102EA0000012B1FBF5F06FF01803584301EB8000FE
:102EB00006EB0010B0FBF5F000F00F0021681044A5
:102EC000886070BDA0FB010192185B41FDF782F99B
:102ED0000146B0FBF5F00201B1FBF5F06FF018030D
:102EE000584301EB800006EBC000B0FBF5F000F0AA
:102EF000F80002EB4002B1FBF5F0584301EB800013
:102F000006EBC000B0FBF5F000F00700D6E70000CC
:102F1000001001400014014081628285C2850021B9
:102F20000164222280F83E2080F83C10016921B122
:102F30000168CA6842F48072CA6001684A6942F056
:102F400001024A610068C16841F02001C1600020AF
:102F500070472DE9F041984617460E460446069DF7
:102F600027E0681C25D02DB1FDF7AEFEA0EB0800D0
:102F7000A8421ED920680C3050E8001F21F4D071FF
:102F800040E80012002AF5D12068143050E8001FF4
:102F900021F0010140E80012002AF5D1202084F838
:102FA0003D0084F83E00002084F83C000320BDE88A
:102FB000F0812068006836EA000004D00020B842A2
:102FC000CFD00020F3E70120F9E700000148FEF729
:102FD0008DBC0000CC0100202DE9F0411D4C88463D
:102FE0001B4D218800266A18491C82F851018AB2BB
:102FF000A818228090F84F1105F251170D2915D10C
:1030000090F850010A2811D139464046FDF713F9CE
:103010002188A5F8501226803846FEF7ADFEFF2124
:103020003846FDF721F9012085F84F012288FF2A53
:103030000CD9A5F8502239464046FDF7FCF8268009
:103040003846BDE8F041FF21FDF70EB9BDE8F0813B
:103050003402002006000020FEE700000FB4054BFC
:1030600010B503A9044A029800F05CF910BC5DF8A1
:1030700014FB00002D3A0008180000200907090E73
:10308000002804DB00F1E02080F80014704700F015
:103090000F0000F1E02080F8141D704700000000D0
:1030A00010B52DED020B2DED088B84B09DED0C0BB2
:1030B00051EC100BFDF7BAFB41EC180B9DED0C0B1E
:1030C00053EC182B51EC100BFDF794F941EC190B54
:1030D0000D989FED290B10F0004F53EC102B51EC85
:1030E000190B9FED21AB9FED22BB0ED0FDF7FAFB34
:1030F0000ED953EC1B2B51EC190BFDF70BFC1CD21A
:1031000014E000BF41EC180B17E0FDF7EBFB06D213
:1031100053EC1A2B51EC180BFDF76CF9F2E753EC5A
:103120001B2B51EC190BFDF7F5FB06D853EC1A2BB2
:1031300051EC180BFDF7BDF8E4E78DED028B9DED2A
:103140000C0B18EE901A10EE900A8DED000B61F347
:103150001E0003909DED020B04B0BDEC088B02B085
:1031600010BD000000000000000000000000F03F63
:10317000000000000000E03F000000000000E0BF91
:1031800002E008C8121F08C1002AFAD17047704730
:10319000002001E001C1121F002AFBD1704700008E
:1031A0002DE9FF5F82B00021DDE90430020DDDF87A
:1031B00040B0034318D044F61050A2F2FF3242430D
:1031C0001514119801281FD0A5EB0B00401C5FEAD5
:1031D000000A4FF000064E4FDFF83891B0465046D7
:1031E00015D5CAF1000413E0119801244AA301285F
:1031F00001D16FEA0B010298119AC0E90031C0E9D0
:10320000024206B0BDE8F09FCBF10000DFE70446C4
:103210000021404A491842EB0450CDE9001012E069
:10322000E00707D032463B4640464946FDF7E8F8FE
:103230008046894632463B4610461946FDF7E0F87F
:1032400006460F466410002CEAD1DDE90401DDE9F1
:103250000023BAF1000F06DAFDF7D2F842464B46DA
:10326000FDF7CEF805E0FDF771FA42464B46FDF753
:103270006DFA04460E460022284BFDF74BFB03D89F
:103280004FF0FF30014607E00022254B2046314633
:10329000FDF70FF8FDF70EFB102409E0002C0ADB08
:1032A0000A220023FCF796FF039B30321A55641E56
:1032B00050EA0102F2D1641C039AC4F111031444D0
:1032C000119A012A03D0012208430DD10AE00843D4
:1032D00004D000204FF0110B119072E7A3EB0B0507
:1032E0006D1E0DE05B4504DD4FF0000205F10105A8
:1032F00004E003DA4FF00002A5F10105002AECD04A
:1033000002981199C0E90231C0E9004579E700004F
:10331000000014400000F03F300000000000F043C7
:103320000000E03F2DE9FF4F95B09A4688460646DB
:103330000025EEE1252877D100242746F94A01210E
:10334000039400E0044316F8013F203B01FA03F028
:103350001042F7D130782A2811D06FF02F0330783F
:10336000A0F13002092A16D8039A44F0020402EBB5
:10337000820203EB42021044761C0390EFE758F8F8
:10338000042B0392002A03DA504244F400540390C1
:1033900044F00204761C30782E2816D116F8010F5E
:1033A00044F004042A280DD06FF02F023078A0F1E9
:1033B0003003092B09D807EB870302EB4303C71837
:1033C000761CF3E758F8047B761C30786C280FD015
:1033D00006DC4C2817D068280DD06A2814D104E0E8
:1033E000742810D07A280FD10DE044F400140AE0BC
:1033F00044F4801401E044F440147278824202D113
:1034000004F58014761C761C307866280BD013DC0B
:10341000582877D009DC002875D04528F6D04628F2
:10342000F4D047281AD193E118E0632835D06428F6
:1034300079D0652812D18BE1702873D008DC672819
:10344000F1D069286FD06E280DD06F2806D1ACE07E
:1034500073282CD0752874D0782853D052461799E9
:1034600090476D1C54E1C4F30250022809D0032890
:103470000DD0D8F8001004280DD00D6008F1040814
:1034800046E1D8F80010EA17C1E90052F6E7D8F88B
:1034900000100D80F2E70D70F0E718F8041B8DF8AE
:1034A000001000208DF80100EB46012003E058F8E1
:1034B00004BB4FF0FF3061074FF0000102D40DE074
:1034C00009F101018946B9420FDA8145F8DB1BF8A1
:1034D00009100029F4D108E009F10101894681426F
:1034E000FADB1BF809100029F6D103985346A0EB2C
:1034F000090721463846179A00F080FA284400EB65
:10350000090507E044E008E10DE01BF8010B524615
:1035100017999047B9F10109F7D253462146384629
:10352000179AF2E039E00A21C4F302524FF0000B7F
:103530000091022A06D058F8040BC117032A09D0BB
:103540000AE023E008F1070020F00702F2E8020198
:10355000904605E000B2C117042A01D140B2C1175C
:10356000002906DA0A460021404261EB02012D22C1
:1035700002E0220504D52B228DF80420012203E06D
:10358000E20701D02022F7E7914657E00A2100E048
:1035900010214FF0000B00910BE010214FF0000BB9
:1035A00044F004040827009103E008204FF0000BCA
:1035B0000090C4F30252022A05D058F8040B0021EF
:1035C000032A08D008E008F1070020F00702F2E81B
:1035D0000201904603E080B2042A00D1C0B24FF04D
:1035E000000922072AD53278702A07D0DDF800C0FA
:1035F0008CF0100C5CEA0B0C05D00EE040228DF82C
:103600000420012208E050EA010306D030238DF89F
:1036100004308DF8052002229146009B83F00803B8
:1036200053EA0B030AD150EA010201D1620705D522
:1036300030228DF804204FF001097F1E3278582A7D
:1036400004D039A20C920CAA02920BE03BA2F9E73B
:103650005B46009AFCF7BEFD0C9B9B5C029A521ED7
:103660000292137050EA0102F2D1029804A9081ADA
:1036700000F1200B600702D524F4803400E001271C
:103680005F4502DDA7EB0B0000E0002000EB0B0123
:10369000009003984944401A0390E00306D453462F
:1036A0002146179A039800F0A9F90544002706E07F
:1036B00001A85246C05D179990476D1C7F1C4F456D
:1036C000F6DBE0030CD553462146179A039800F029
:1036D00095F9054404E030205246179990476D1C37
:1036E0000099481E00900029F5DC08E00298029934
:1036F00052460078491C0291179990476D1CBBF106
:103700000001ABF1010BF1DC5BE100F065F9054470
:10371000761C307800287FF40DAE19B02846BDE83D
:10372000F08F00000928010030313233343536374C
:1037300038396162636465660000000030313233FD
:10374000343536373839414243444546000000009D
:10375000600700D4062708F1070020F00700F0E812
:103760000223804603F0004C5FEA0C0001D097A0D2
:1037700009E0200501D596A005E0E00701D095A05D
:1037800001E0AFF24C001390307823F0004365283D
:103790000CD006DC452809D046281DD047287FD10B
:1037A0003BE0662818D067287AD136E00021112F37
:1037B00001DB112000E0781CCDE9000104A90CA870
:1037C000FFF7EEFCDDE90D010C9A4FF0000B07F15D
:1037D0000109109200914EE04FF000400097CDE9B2
:1037E000011004A90CA8FFF7DBFCDDE90D020C9B1E
:1037F0000F994FF0000B91461093009211B9791C6C
:1038000000EB0109B7EB090003D4C0F1FF3B07F15E
:103810000109A9EB0700019042E0012F00DA01271E
:103820000021112F01DD112000E03846CDE9000113
:1038300004A90CA8FFF7B4FCDDE90D010C9A009176
:103840004FF0000BB946109221070FD4009A4A4559
:1038500003DA914601E0A9F10109B9F1010F05DD93
:10386000109AA9F10101515C3029F4D0B84202DA72
:1038700010F1040F03DA0121CDE9011010E0002856
:1038800003DC8344A9EB000102E0411C494500DD53
:103890008946A0EB0B00401C01904FF000400290C5
:1038A000200705D40198484502DB4FF0FF30019016
:1038B00000208DF84B0002980DF14B07B0F1004F3E
:1038C00025D002200C902B200D90029800280CDAB5
:1038D000404202902D200D9007E00A210298FCF74B
:1038E0005AFE3031029007F8011D0C99481E0C90C9
:1038F0000029F2DC02980028EFD1791E0D9808709B
:10390000307800F0200040F0450007F8020D11A8C3
:10391000C01BC01D02901398007800B1012000EB7D
:103920000901019801EBE071029801440398401AE3
:10393000401E0390E00306D453462146179A03988D
:1039400000F05CF805441398007818B152461799B6
:1039500090476D1CE00323D553462146179A0398E0
:1039600000F04CF805441BE0BBF1000F07DB0098AA
:10397000584504DD1098179910F80B0001E01799CD
:1039800030205246904701980BF1010B401E05F183
:103990000105019004D12E205246179990476D1CC5
:1039A000B9F10001A9F10109DEDC05E017F8010B0E
:1039B0005246179990476D1C0299481E02900029A3
:1039C000F4DC53462146179A03989EE62D0000002A
:1039D0002B000000200000002DE9F04104460025E6
:1039E0001E461746880404D405E039462020B04717
:1039F0006D1C641EF9D52846BDE8F0812DE9F04123
:103A0000044600251E469046C80301D5302700E035
:103A10002027880404D505E041463846B0476D1C90
:103A2000641EF9D52846BDE8F081000013B54FF6B5
:103A3000FF73012269460248FEF742F900981CBD57
:103A4000CC010020FDF74EF9FEF7BEFDFEF70EFBA0
:103A5000FEF7C0FBFEF7F4FBFEF728FCFEF75CFC6C
:103A6000FEF780FBFEF79AFBFEF77EFCFEF798FC64
:103A7000FEF7ACFCFCE700000000000000000102C3
:103A80000304060708090000000001020304000007
:103A90000D0A3D3D3D3D3D3D3D3D3D3D3D3D3D3DB9
:103AA0003D3D3D3D3D3D3D3D3D3D3D3D3D3D3D3D46
:103AB0003D3D3D3D3D0D0A53535645502645525020
:103AC000204C4544204465766963652052656164F5
:103AD00079210D0A00000000506C65617365206358
:103AE0006F6E6669677572652074686520646576B7
:103AF0006963652066697273742E2E2E2E2E2E0D2C
:103B00000A3D3D3D3D3D3D3D3D3D3D3D3D3D3D3D18
:103B10003D3D3D3D3D3D3D3D3D3D3D3D3D3D3D3DD5
:103B20003D3D3D3D0D0A0000483B000800000020DF
:103B30001C00000080310008643B00081C000020CD
:103B40009408000090310008000000000000000010
:103B50000100000010000000000000000024F4003C
:043B60000000000061
:040000050800019955
:00000001FF
